:0E0000000C942A000C9400000C9400000C9448
:10000E0000000C9400000C9400000C9400000C9462
:10001E0000000C9400000C9400000C9400000C9452
:10002E0000000C9400000C9400000C9400000C9442
:10003E0000000C9400000C9400000C9400000C9432
:10004E0000000C940000F894EE27ECBBF1E0FBBF2F
:10005E00EBBFE5BF8DE0A2E0BB27ED938A95E9F7F4
:10006E0080E098E0A0E6ED930197E9F7EFE5EDBFAC
:10007E00E8E0EEBFC0E6D2E00C944500EFE0EABB4C
:10008E00E0E0EBBBE7BBE8BBE4BBE5BBE1BBE2BB3F
:10009E00E3BFE2BFECBFEFBDEEBDEDBDECBDE7BD16
:1000AE00E6BDEBBDEABDE9BDE8BDE2BDE5BDE4BD23
:1000BE00E3BDE9BFE5BFE4BFEAB9E0E8E8B9E0E0D7
:1000CE00E0BFE6B9EDB9E6BF9A9919C040945094D5
:1000DE00042C052841F0E5E014D0EAE012D0E6E069
:1000EE0010D0E9E007C0E9E00CD0E6E00AD0EAE083
:1000FE0008D0E5E0EBBBA8E8B3E10E948D00E4CFA9
:10010E00FFCFEBBBA8E8B3E10C948D00109639F04D
:10011E0080ED97E00197F1F7A8951197C9F708952B
:00000001FF
