:0C0000000C943D000C9400000C940000D7
:10000C000C9400000C946A000C9400000C940000FA
:10001C000C9400000C9400000C9400000C94000054
:10002C000C9400000C9400000C9400000C94000044
:10003C000C9400000C9400000C9400000C94000034
:10004C000C9400000C9400001027E80364000A00D4
:10005C000100001000011000010025643A25643AEB
:10006C002564000080C00200660170000000F89456
:10007C00EE27ECBBF1E0FBBFEBBFE5BF8DE0A2E0F0
:10008C00BB27ED938A95E9F780E094E0A0E6ED9329
:10009C000197E9F7E2E7F0E085919591009761F01F
:1000AC00A591B59105901590BF01F00105900D92A9
:1000BC000197E1F7FB01F0CFEFE5EDBFE4E0EEBF18
:1000CC00C0E6D1E00C949D00EA93FA93EFB7EA9363
:1000DC00EDE3E4BDF50131965F01E8E2F0E0EA15ED
:1000EC00FB0519F4F40131964F01AA24BB24EBE370
:1000FC00F0E0E815F90519F4F30131963F01882475
:10010C009924EBE3F0E0E615F70519F4F2013196CA
:10011C002F0166247724E8E1F0E0E415F50511F4ED
:10012C0044245524E991EFBFF991E9911895E0E049
:10013C00EABBEBBBE2BDE7E0E5BDEDE3E4BDE0E02F
:10014C00E3BDE0E4E9BFA0E182D04DD07894E0E6D5
:10015C00F1E0FA93EA93E6E6F0E0FA93EA93F2011F
:10016C000E941D03F3010E941D03F4010E941D0354
:10017C008CE00E94D002609636D0A0E6B1E056D05A
:10018C00AAE0B0E00E945C03E2CFFFCFAA93EBB3EE
:10019C00EF70AE2FE881E07FEA2BEBBB8DE08A9508
:1001AC00F1F7DA9A8DE08A95F1F7DA988DE08A9575
:1001BC00F1F77AC0AA93A881E9DFE881E295E88398
:1001CC00A881E4DF85E88A95F1F76EC0AA93E881EF
:1001DC00F0E0EA59FE4FE081A981AE0FEBDFD98048
:1001EC00C88022960895A2E00E942203ACE0E2DFD0
:1001FC00A1E00E942203E0E0CE2EDE2E0895AA9309
:10020C00A881AA3021F0E0916A01DE1648F0E0E006
:10021C00EA93C394AC2DDADFA881AA3009F444C068
:10022C00D394D89AA881C6DFD8983EC0BA93AA9323
:10023C001A93A981BA81ED91A983BA831E2FE0305C
:10024C0019F0A12FDCDFF5CF188123960895AA931E
:10025C00EAB3E06FEABBD29AD09AD19ADA98D898DE
:10026C00D998E881E0936A01E058E0936801E8814D
:10027C00E054E0936901A4E1B0E00E945C030E94A9
:10028C0028030E9428030E942803A0E27FDF88EC49
:10029C0090E00197F1F7A8E28DDFA4E08BDFA5E8F1
:1002AC0089DFA6E087DF9FDF21960895BA93AA9392
:1002BC001A930A93AA81BB8112960E9473033097FA
:1002CC0059F1AA81BB8114960E9473038F01309758
:1002DC0061F00230E0E01E0798F0F80131978F01D1
:1002EC00AA81BB811496ED93FC93AA81BB811296D3
:1002FC00ED91FD913196FE93EE933197AC81A083F5
:10030C00AA81BB810E947303FF232AF0ED91FD911A
:10031C003196FE93EE9306C0AA81BB81EFEFFFEFFF
:10032C00ED93FC931981088125960895BA93AA93AD
:10033C0026970E94800310E0AC85BD85E0E0F0E0DC
:10034C00ED93FC93EA89FB893196EA8BFB8B319711
:10035C00E4912E2FE03009F415C1E12FE03039F48F
:10036C00253211F411E002C00E9430030AC1E130C1
:10037C00A9F4253219F40E94300302C112E040E0C6
:10038C0000E02D3211F401E0FCC02B3211F44BE2F1
:10039C00F8C0203211F440E2F4C002C0E23039F46B
:1003AC0050E013E0203311F40068EBC003C0E330DD
:1003BC0009F0E7C0203310F02A3308F007C0AAE098
:1003CC005A9F502DE22FE0535E0FDBC0E22FE33635
:1003DC0049F40E943703E889F989A481AA930E9401
:1003EC003D03CEC0E33741F40E9437030E94430320
:1003FC000E9404031E2F0AC0E03761F40E943703E9
:10040C000E9443030E9410031E2F086002600F77A6
:10041C0030E034C0E43611F0E93611F4046002C067
:10042C00E53731F4E4E5F0E0EE83FF8315E00CC032
:10043C00E83511F4086003C0E83709F0A1C0EEE517
:10044C00F0E0EE83FF8314E002FF14C00E94370338
:10045C000E944D03AB85AA233AF4EA85FB850E94E2
:10046C006A03EA87FB874DE2403011F01F5F01C041
:10047C000B7F04C00E9437030E944D0300FD11C086
:10048C00151778F407FF08C002FF04C00B7F242F58
:10049C00115001C020E301C020E20E9430035150F2
:1004AC00EFCF312F01FF17C03030A1F003FF06C092
:1004BC00EE81FF812591EE83FF8305C0AE81BF8164
:1004CC002D91AE83BF830E943003503009F0515000
:1004DC003150EACF4BC020E3EE81FF810E947703BD
:1004EC00E887F987EE81FF813296EE83FF83E885FA
:1004FC00F985AA85BB85AE17BF0750F02F5FA8857D
:10050C00B985EA85FB85EA1BFB0BEA87FB87EFCFF6
:10051C002A3328F003FF02C0295F01C0295D04FDC6
:10052C001AC0213320F4A885B985119709F409C0A4
:10053C00531710F000FF01C013C020E207FF0BC0DF
:10054C0020E3006102FF07C00B7F4A930E943D032A
:10055C00503009F051500E943003503009F0515086
:10056C003150A885B985129708F0B5CF00FF08C0A7
:10057C00503031F05150E0E2EA930E943D03F8CF45
:10058C0010E0E0CEAC85BD850E9473030E9487030A
:10059C0064960895FF92F82E26970E9482030E947B
:1005AC005503309719F4EFEFFFEF23C0DE011696D9
:1005BC000E9466038D010E945503EE83FF83E0E0E9
:1005CC00E887E987DE011A960E9466030E9473038E
:1005DC00FA93EA931A930A93ECE5F1E0FA93EA930F
:1005EC00DE011A96A3DE9F01AE81BF81E0E0EC93A1
:1005FC00F9010E9489032A96FF900895BA93AA9351
:10060C00A991B991EE27FF276D91662311F03196D0
:10061C00FBCF0895BA93AA93AA27BB27E991F99126
:10062C000590002011F01196FBCFFD0108950E945A
:10063C006E030E947B0308950E94E000A3E0B0E0EB
:10064C000C945C03A0E30E94CC0088EC90E0019732
:10065C00F1F708952A93AD85BE85EF85F889099544
:10066C000895E889F9893497E88BF98B0895AD855D
:10067C00BE85EF85F88909950895A889B9891496DE
:10068C000E947303EE83FF83AE81BF810895A88916
:10069C00B98914960E947303EA87FB870895DE01DB
:1006AC001C960E9466030E9473030895109639F0FD
:1006BC0080ED97E00197F1F7A8951197C9F7089588
:1006CC000024AF0DB01D0895F195E195F04008950B
:1006DC006F2F660F660B762F0895ED91FC91119795
:1006EC0008950590F491E02D08957A936A93FA9306
:1006FC00EA9308955A934A933A932A931A930A9336
:10070C0008955D814C813B812A811981088108956E
:00000001FF
