:100000000C943E000C9400000C9400000C94C00072
:100010000C9400000C9400000C9400000C94000060
:100020000C9400000C9400000C9400000C94000050
:100030000C9400000C9400000C9400000C94000040
:100040000C9400000C9400000C9400000C94000030
:100050000C9400001027E80364000A00010000105F
:1000600000011000010014002025630080C0010081
:100070000500660002007E026C000000F894EE2786
:10008000ECBBF1E0FBBFEBBFE5BF8DE0A2E0BB271F
:10009000ED938A95E9F780E098E0A0E6ED9301976B
:1000A000E9F7EEE6F0E085919591009761F0A59172
:1000B000B59105901590BF01F00105900D92019743
:1000C000E1F7FB01F0CFEFE5EDBFE8E0EEBFC0E602
:1000D000D2E00C94FC00AC9885E08A95F1F79899F1
:1000E00002C0E7E35E2E999902C0E4E35E2E9A997E
:1000F00002C0E1E35E2E9B9902C0E6E45E2EAC9A5C
:10010000AD9885E08A95F1F7989902C0E8E35E2EF4
:10011000999902C0E5E35E2E9A9902C0E2E35E2E51
:100120009B9902C0E0E35E2EAD9AAE9885E08A9579
:10013000F1F7989902C0E9E35E2E999902C0E6E3CF
:100140005E2E9A9902C0E3E35E2E9B9902C0E5E41D
:100150005E2EAE9AAF9885E08A95F1F7989902C025
:10016000E1E45E2E999902C0E2E45E2E9A9902C003
:10017000E3E45E2E9B9902C0E4E45E2EAF9A0895FC
:100180000A921A92FA926A937A938A939A93AA930A
:10019000BA93EA93FA93EFB7EA931A93EFEFE5BBBA
:1001A00010E0153018F497DF1F5FFBCFEFE0E5BBE1
:1001B000E0E6F2E0FA93EA93E8E6F0E0FA93EA93F5
:1001C000E52DFF27662777270E94B50384E00E946C
:1001D00014032896A0E6B2E074D01991E991EFBF1C
:1001E000F991E991B991A99199918991799169913F
:1001F000F990199009901895E0E0EABBEBBBE7BBDA
:10020000E8BBE0EFE4BBEFE0E5BBEBB7E062EBBFE0
:10021000E0E0E5BFE0E4E4BFE0E2EABFA0E162D0F5
:100220007894FFCFFFCFAA93EBB3EF70AE2FE881A6
:10023000E07FEA2BEBBB8DE08A95F1F7DA9A8DE04F
:100240008A95F1F7DA988DE08A95F1F777C0AA934D
:10025000A881E9DFE881E295E883A881E4DF85E809
:100260008A95F1F76BC0AA93E881F0E0E258FD4F60
:10027000E081A981AE0FEBDF498078802296089556
:10028000A2E00E946103ACE0E2DFA1E00E94610312
:10029000E0E07E2E4E2E0895AA93A881AA3011F098
:1002A000461448F0E0E0EA937394A72DDCDFA881C0
:1002B000AA3009F443C04394D89AA881C8DFD898DB
:1002C0003DC0BA93AA931A93A981BA81ED91A983EB
:1002D000BA831E2FE03019F0A12FDEDFF5CF188191
:1002E00023960895AA93EAB3E06FEABBD29AD09A14
:1002F000D19ADA98D898D9986880E881E058E09344
:100300008002E881E054E0938102A4E1B0E00E9421
:100310009B030E9467030E9467030E946703A0E299
:1003200082DF88EC90E00197F1F7A8E290DFA4E08B
:100330008EDFA5E88CDFA6E08ADFA2DF2196089594
:10034000BA93AA931A930A93AA81BB8112960E9428
:10035000AD03309759F1AA81BB8114960E94AD0379
:100360008F01309761F00230E0E01E0798F0F8014D
:1003700031978F01AA81BB811496ED93FC93AA81DA
:10038000BB811296ED91FD913196FE93EE933197DC
:10039000AC81A083AA81BB810E94AD03FF232AF018
:1003A000ED91FD913196FE93EE9306C0AA81BB813B
:1003B000EFEFFFEFED93FC931981088125960895E7
:1003C000BA93AA9326970E94BA0310E0AC85BD8524
:1003D000E0E0F0E0ED93FC93EA89FB893196EA8B4B
:1003E000FB8B3197E4912E2FE03009F415C1E12FFA
:1003F000E03039F4253211F411E002C00E946F039D
:100400000AC1E130A9F4253219F40E946F0302C138
:1004100012E040E000E02D3211F401E0FCC02B328C
:1004200011F44BE2F8C0203211F440E2F4C002C0F3
:10043000E23039F450E013E0203311F40068EBC0EF
:1004400003C0E33009F0E7C0203310F02A3308F08E
:1004500007C0AAE05A9F502DE22FE0535E0FDBC089
:10046000E22FE33649F40E947603E889F989A481F2
:10047000AA930E947C03CEC0E33741F40E94760326
:100480000E9482030E9448031E2F0AC0E03761F4D5
:100490000E9476030E9482030E9454031E2F08606C
:1004A00002600F7730E034C0E43611F0E93611F421
:1004B000046002C0E53731F4E4E5F0E0EE83FF8349
:1004C00015E00CC0E83511F4086003C0E83709F006
:1004D000A1C0EEE5F0E0EE83FF8314E002FF14C05C
:1004E0000E9476030E948C03AB85AA233AF4EA8526
:1004F000FB850E94A903EA87FB874DE2403011F09B
:100500001F5F01C00B7F04C00E9476030E948C0312
:1005100000FD11C0151778F407FF08C002FF04C0E2
:100520000B7F242F115001C020E301C020E20E9464
:100530006F035150EFCF312F01FF17C03030A1F0C2
:1005400003FF06C0EE81FF812591EE83FF8305C086
:10055000AE81BF812D91AE83BF830E946F03503067
:1005600009F051503150EACF4BC020E3EE81FF81BA
:100570000E94B103E887F987EE81FF813296EE830E
:10058000FF83E885F985AA85BB85AE17BF0750F0C4
:100590002F5FA885B985EA85FB85EA1BFB0BEA87F7
:1005A000FB87EFCF2A3328F003FF02C0295F01C089
:1005B000295D04FD1AC0213320F4A885B98511975F
:1005C00009F409C0531710F000FF01C013C020E266
:1005D00007FF0BC020E3006102FF07C00B7F4A93B7
:1005E0000E947C03503009F051500E946F0350303C
:1005F00009F051503150A885B985129708F0B5CF50
:1006000000FF08C0503031F05150E0E2EA930E9400
:100610007C03F8CF10E0E0CEAC85BD850E94AD0331
:100620000E94C10364960895FF92F82E26970E94B7
:10063000BC030E949403309719F4EFEFFFEF23C03F
:10064000DE0116960E94A5038D010E949403EE839D
:10065000FF83E0E0E887E987DE011A960E94A503A0
:100660000E94AD03FA93EA931A930A93E0EAF1E049
:10067000FA93EA93DE011A96A3DE9F01AE81BF8151
:10068000E0E0EC93F9010E94C3032A96FF900895DD
:10069000BA93AA93A991B991EE27FF276D9166238A
:1006A00011F03196FBCF0895BA93AA93AA27BB27DE
:1006B000E991F9910590002011F01196FBCFFD0111
:1006C00008950E942701A3E0B0E00C949B03A0E3EF
:1006D0000E94130188EC90E00197F1F708952A93A6
:1006E000AD85BE85EF85F88909950895E889F98972
:1006F0003497E88BF98B0895AD85BE85EF85F88931
:1007000009950895A889B98914960E94AD03EE83CE
:10071000FF83AE81BF810895A889B98914960E948C
:10072000AD03EA87FB870895DE011C960E94A503AE
:100730000E94AD030895109639F080ED97E001977F
:10074000F1F7A8951197C9F708950024AF0DB01DD2
:100750000895F195E195F0400895ED91FC91119780
:1007600008950590F491E02D08957A936A93FA9391
:10077000EA9308955A934A933A932A931A930A93C1
:1007800008955D814C813B812A81198108810895FA
:00000001FF
