:040000000C946200FA
:100004000C9400000C9400000C9400000C9400006C
:100014000C9400000C9400000C9400000C948F00CD
:100024000C9400000C9400000C9400000C9400004C
:100034000C9400000C9400000C9400000C9400003C
:100044000C9400000C9400000C9400000C9400002C
:100054001027E80364000A000100001000011000EA
:10006400010070726573732066697273742062751F
:1000740074746F6E20746F207365740073657420DC
:10008400686F75723A0025643A2D2D3A2D2D002D96
:100094002D3A25643A2D2D002D2D3A2D2D3A256427
:1000A4000025643A25643A25640080C01A00600182
:1000B40066000A007A01800002008A01AE00000096
:1000C400F894EE27ECBBF1E0FBBFEBBFE5BF8DE09E
:1000D400A2E0BB27ED938A95E9F780E094E0A0E6DF
:1000E400ED930197E9F7E0EBF0E0859195910097A6
:1000F40061F0A591B59105901590BF01F0010590AF
:100104000D920197E1F7FB01F0CFEFE5EDBFE4E0DD
:10011400EEBFC0E6D1E00C94C1000A92EA93FA93D0
:10012400EFB7EA93E5E8EDBDEEEEECBDF4013197EF
:100134004F01082C092831F4F30131973F01EBE317
:10014400F0E04F01062C072831F4F20131972F011A
:10015400EBE3F0E03F0100240414050441F400241F
:100164000614070421F400240814090409F001C04A
:10017400F894E991EFBFF991E99109901895E0E0BD
:10018400EABBEBBBE7BBE8BBEFBDE4E0EEBDE5E8F3
:10019400EDBDEEEEECBDE0E0E7BDE6BDEBBDEABDD6
:1001A400E9BDE8BDE4E0E9BFA0E1E0D0ADD0A0E660
:1001B400B1E0CBD0B69B5DC0F894A6D0AAE7B1E07D
:1001C400C4D00E94A703B69917C0B79B05C0F2011B
:1001D40031962F010E94AB030E94AF03EAE8F0E0DE
:1001E4000E94B4030E94BC03A6E90E94C203A6E9CC
:1001F400B0E00E940804E7CF0E94A703B69918C094
:10020400B79B05C0F30131963F010E94AB030E94E6
:10021400AF03E3E9F0E0FA93EA93F3010E94C90320
:10022400A8EC0E94C203A8ECB0E00E940804E6CF48
:100234000E94A703B69918C0B79B05C0F401319674
:100244004F010E94AB030E94AF03ECE9F0E0FA9384
:10025400EA93F4010E94C903A8EC0E94C203A8EC2B
:10026400B0E00E940804E6CF7894A4EFB1E00E94C5
:1002740008040E94AF03E5EAF0E00E94B403F3012E
:100284000E941A040E942704F4010E941A040E9486
:1002940027048CE00E945A03609636D0A4E8B1E0AB
:1002A40054D0AAE0B0E00E94080484CFFFCFAA9300
:1002B400EBB3EF70AE2FE881E07FEA2BEBBB8DE070
:1002C4008A95F1F7DA9A8DE08A95F1F7DA988DE05C
:1002D4008A95F1F777C0AA93A881E9DFE881E295CE
:1002E400E883A881E4DF85E88A95F1F76BC0AA93D7
:1002F400E881F0E0E657FE4FE081A981AE0FEBDF25
:10030400B980A88022960895A2E00E94CE03ACE0B2
:10031400E2DFA1E00E94CE03E0E0AE2EBE2E0895FF
:10032400AA93A881AA3011F0BD1448F0E0E0EA9342
:10033400A394AA2DDCDFA881AA3009F443C0B394A6
:10034400D89AA881C8DFD8983DC0BA93AA931A93C3
:10035400A981BA81ED91A983BA831E2FE03019F0E7
:10036400A12FDEDFF5CF188123960895AA93EAB36F
:10037400E06FEABBD29AD09AD19ADA98D898D998F1
:10038400D880E881E058E0938C01E881E054E09360
:100394008D01A4E1B0E00E9408040E94D4030E94ED
:1003A400D4030E94D403A0E282DF88EC90E001979A
:1003B400F1F7A8E290DFA4E08EDFA5E88CDFA6E0E9
:1003C4008ADFA2DF21960895BA93AA931A930A9317
:1003D400AA81BB8112960E941F04309759F1AA8109
:1003E400BB8114960E941F048F01309761F0023084
:1003F400E0E01E0798F0F80131978F01AA81BB81D4
:100404001496ED93FC93AA81BB811296ED91FD9114
:100414003196FE93EE933197AC81A083AA81BB8180
:100424000E941F04FF232AF0ED91FD913196FE9363
:10043400EE9306C0AA81BB81EFEFFFEFED93FC932F
:100444001981088125960895BA93AA9326970E9444
:100454002C0410E0AC85BD85E0E0F0E0ED93FC9366
:10046400EA89FB893196EA8BFB8B3197E4912E2F35
:10047400E03009F415C1E12FE03039F4253211F4EC
:1004840011E002C00E94DC030AC1E130A9F4253264
:1004940019F40E94DC0302C112E040E000E02D32B6
:1004A40011F401E0FCC02B3211F44BE2F8C020320D
:1004B40011F440E2F4C002C0E23039F450E013E039
:1004C400203311F40068EBC003C0E33009F0E7C047
:1004D400203310F02A3308F007C0AAE05A9F502DA9
:1004E400E22FE0535E0FDBC0E22FE33649F40E94B3
:1004F400E303E889F989A481AA930E94E903CEC0A1
:10050400E33741F40E94E3030E94EF030E948E0349
:100514001E2F0AC0E03761F40E94E3030E94EF0338
:100524000E949A031E2F086002600F7730E034C0E7
:10053400E43611F0E93611F4046002C0E53731F411
:10054400E4E5F0E0EE83FF8315E00CC0E83511F438
:10055400086003C0E83709F0A1C0EEE5F0E0EE83DF
:10056400FF8314E002FF14C00E94E3030E94F90316
:10057400AB85AA233AF4EA85FB850E941604EA8730
:10058400FB874DE2403011F01F5F01C00B7F04C0B8
:100594000E94E3030E94F90300FD11C0151778F4CB
:1005A40007FF08C002FF04C00B7F242F115001C0B5
:1005B40020E301C020E20E94DC035150EFCF312F31
:1005C40001FF17C03030A1F003FF06C0EE81FF81A8
:1005D4002591EE83FF8305C0AE81BF812D91AE834B
:1005E400BF830E94DC03503009F051503150EACFF0
:1005F4004BC020E3EE81FF810E942304E887F98742
:10060400EE81FF813296EE83FF83E885F985AA8522
:10061400BB85AE17BF0750F02F5FA885B985EA8563
:10062400FB85EA1BFB0BEA87FB87EFCF2A3328F015
:1006340003FF02C0295F01C0295D04FD1AC02133F4
:1006440020F4A885B985119709F409C0531710F04F
:1006540000FF01C013C020E207FF0BC020E30061CC
:1006640002FF07C00B7F4A930E94E903503009F050
:1006740051500E94DC03503009F051503150A8858C
:10068400B985129708F0B5CF00FF08C0503031F09B
:100694005150E0E2EA930E94E903F8CF10E0E0CE83
:1006A400AC85BD850E941F040E943304649608959E
:1006B400FF92F82E26970E942E040E940104309780
:1006C40019F4EFEFFFEF23C0DE0116960E94120427
:1006D4008D010E940104EE83FF83E0E0E887E9874F
:1006E400DE011A960E9412040E941F04FA93EA93F0
:1006F4001A930A93E6EEF1E0FA93EA93DE011A966E
:10070400A3DE9F01AE81BF81E0E0EC93F9010E947A
:1007140035042A96FF900895BA93AA93A991B991A2
:10072400EE27FF276D91662311F03196FBCF0895D4
:10073400BA93AA93AA27BB27E991F99105900020BF
:1007440011F01196FBCFFD010895AAEFB0E00C94CF
:100754000804A2E3B0E00C940804E4E8F1E0FA939E
:10076400EA930895FA93EA93F2010E941A040E940C
:100774002704089584E00E945A0328960C94860165
:10078400B0E00E940804A4E8B1E00C94A7010E9420
:100794001A040E942704EECF0E946D01A3E0B0E08A
:1007A4000C940804A0E30E94590188EC90E001979E
:1007B400F1F708952A93AD85BE85EF85F8890995EB
:1007C4000895E889F9893497E88BF98B0895AD8504
:1007D400BE85EF85F88909950895A889B989149685
:1007E4000E941F04EE83FF83AE81BF810895A88910
:1007F400B98914960E941F04EA87FB870895DE01D5
:100804001C960E9412040E941F040895109639F049
:1008140080ED97E00197F1F7A8951197C9F708952E
:100824000024AF0DB01D0895F195E195F0400895B1
:100834006F2F660F660B762F0895ED91FC9111973B
:1008440008950590F491E02D08957A936A93FA93AC
:10085400EA9308955A934A933A932A931A930A93DC
:1008640008955D814C813B812A8119810881089515
:00000001FF
